{
  "_format": "hh-sol-artifact-1",
  "contractName": "QOZContract",
  "sourceName": "contracts/QOZContract.sol",
  "abi": [
    {
      "inputs": [
        {
          "internalType": "string[]",
          "name": "characterNames",
          "type": "string[]"
        },
        {
          "internalType": "string[]",
          "name": "characterImageURIs",
          "type": "string[]"
        },
        {
          "internalType": "uint256[]",
          "name": "characterChakra",
          "type": "uint256[]"
        },
        {
          "internalType": "uint256[]",
          "name": "characterIntelligence",
          "type": "uint256[]"
        },
        {
          "internalType": "string[]",
          "name": "characterNotes",
          "type": "string[]"
        }
      ],
      "stateMutability": "nonpayable",
      "type": "constructor"
    },
    {
      "anonymous": false,
      "inputs": [
        {
          "indexed": true,
          "internalType": "address",
          "name": "owner",
          "type": "address"
        },
        {
          "indexed": true,
          "internalType": "address",
          "name": "approved",
          "type": "address"
        },
        {
          "indexed": true,
          "internalType": "uint256",
          "name": "tokenId",
          "type": "uint256"
        }
      ],
      "name": "Approval",
      "type": "event"
    },
    {
      "anonymous": false,
      "inputs": [
        {
          "indexed": true,
          "internalType": "address",
          "name": "owner",
          "type": "address"
        },
        {
          "indexed": true,
          "internalType": "address",
          "name": "operator",
          "type": "address"
        },
        {
          "indexed": false,
          "internalType": "bool",
          "name": "approved",
          "type": "bool"
        }
      ],
      "name": "ApprovalForAll",
      "type": "event"
    },
    {
      "anonymous": false,
      "inputs": [
        {
          "indexed": false,
          "internalType": "address",
          "name": "sender",
          "type": "address"
        },
        {
          "indexed": false,
          "internalType": "uint256",
          "name": "tokenId",
          "type": "uint256"
        },
        {
          "indexed": false,
          "internalType": "uint256",
          "name": "characterIndex",
          "type": "uint256"
        }
      ],
      "name": "CharacterNFTMinted",
      "type": "event"
    },
    {
      "anonymous": false,
      "inputs": [
        {
          "indexed": true,
          "internalType": "address",
          "name": "from",
          "type": "address"
        },
        {
          "indexed": true,
          "internalType": "address",
          "name": "to",
          "type": "address"
        },
        {
          "indexed": true,
          "internalType": "uint256",
          "name": "tokenId",
          "type": "uint256"
        }
      ],
      "name": "Transfer",
      "type": "event"
    },
    {
      "inputs": [
        {
          "internalType": "address",
          "name": "to",
          "type": "address"
        },
        {
          "internalType": "uint256",
          "name": "tokenId",
          "type": "uint256"
        }
      ],
      "name": "approve",
      "outputs": [],
      "stateMutability": "nonpayable",
      "type": "function"
    },
    {
      "inputs": [
        {
          "internalType": "address",
          "name": "owner",
          "type": "address"
        }
      ],
      "name": "balanceOf",
      "outputs": [
        {
          "internalType": "uint256",
          "name": "",
          "type": "uint256"
        }
      ],
      "stateMutability": "view",
      "type": "function"
    },
    {
      "inputs": [],
      "name": "checkIfUserHasNFT",
      "outputs": [
        {
          "components": [
            {
              "internalType": "uint256",
              "name": "characterIndex",
              "type": "uint256"
            },
            {
              "internalType": "string",
              "name": "name",
              "type": "string"
            },
            {
              "internalType": "string",
              "name": "imageURI",
              "type": "string"
            },
            {
              "internalType": "uint256",
              "name": "chakra",
              "type": "uint256"
            },
            {
              "internalType": "uint256",
              "name": "intelligence",
              "type": "uint256"
            },
            {
              "internalType": "string",
              "name": "notes",
              "type": "string"
            }
          ],
          "internalType": "struct QOZContract.CharacterAttributes",
          "name": "",
          "type": "tuple"
        }
      ],
      "stateMutability": "view",
      "type": "function"
    },
    {
      "inputs": [],
      "name": "getAllDefaultCharacters",
      "outputs": [
        {
          "components": [
            {
              "internalType": "uint256",
              "name": "characterIndex",
              "type": "uint256"
            },
            {
              "internalType": "string",
              "name": "name",
              "type": "string"
            },
            {
              "internalType": "string",
              "name": "imageURI",
              "type": "string"
            },
            {
              "internalType": "uint256",
              "name": "chakra",
              "type": "uint256"
            },
            {
              "internalType": "uint256",
              "name": "intelligence",
              "type": "uint256"
            },
            {
              "internalType": "string",
              "name": "notes",
              "type": "string"
            }
          ],
          "internalType": "struct QOZContract.CharacterAttributes[]",
          "name": "",
          "type": "tuple[]"
        }
      ],
      "stateMutability": "view",
      "type": "function"
    },
    {
      "inputs": [
        {
          "internalType": "uint256",
          "name": "tokenId",
          "type": "uint256"
        }
      ],
      "name": "getApproved",
      "outputs": [
        {
          "internalType": "address",
          "name": "",
          "type": "address"
        }
      ],
      "stateMutability": "view",
      "type": "function"
    },
    {
      "inputs": [
        {
          "internalType": "address",
          "name": "owner",
          "type": "address"
        },
        {
          "internalType": "address",
          "name": "operator",
          "type": "address"
        }
      ],
      "name": "isApprovedForAll",
      "outputs": [
        {
          "internalType": "bool",
          "name": "",
          "type": "bool"
        }
      ],
      "stateMutability": "view",
      "type": "function"
    },
    {
      "inputs": [
        {
          "internalType": "uint256",
          "name": "_characterIndex",
          "type": "uint256"
        }
      ],
      "name": "mintCharacterNFT",
      "outputs": [],
      "stateMutability": "nonpayable",
      "type": "function"
    },
    {
      "inputs": [],
      "name": "name",
      "outputs": [
        {
          "internalType": "string",
          "name": "",
          "type": "string"
        }
      ],
      "stateMutability": "view",
      "type": "function"
    },
    {
      "inputs": [
        {
          "internalType": "uint256",
          "name": "",
          "type": "uint256"
        }
      ],
      "name": "nftHolderAttributes",
      "outputs": [
        {
          "internalType": "uint256",
          "name": "characterIndex",
          "type": "uint256"
        },
        {
          "internalType": "string",
          "name": "name",
          "type": "string"
        },
        {
          "internalType": "string",
          "name": "imageURI",
          "type": "string"
        },
        {
          "internalType": "uint256",
          "name": "chakra",
          "type": "uint256"
        },
        {
          "internalType": "uint256",
          "name": "intelligence",
          "type": "uint256"
        },
        {
          "internalType": "string",
          "name": "notes",
          "type": "string"
        }
      ],
      "stateMutability": "view",
      "type": "function"
    },
    {
      "inputs": [
        {
          "internalType": "address",
          "name": "",
          "type": "address"
        }
      ],
      "name": "nftHolders",
      "outputs": [
        {
          "internalType": "uint256",
          "name": "",
          "type": "uint256"
        }
      ],
      "stateMutability": "view",
      "type": "function"
    },
    {
      "inputs": [
        {
          "internalType": "uint256",
          "name": "tokenId",
          "type": "uint256"
        }
      ],
      "name": "ownerOf",
      "outputs": [
        {
          "internalType": "address",
          "name": "",
          "type": "address"
        }
      ],
      "stateMutability": "view",
      "type": "function"
    },
    {
      "inputs": [
        {
          "internalType": "address",
          "name": "from",
          "type": "address"
        },
        {
          "internalType": "address",
          "name": "to",
          "type": "address"
        },
        {
          "internalType": "uint256",
          "name": "tokenId",
          "type": "uint256"
        }
      ],
      "name": "safeTransferFrom",
      "outputs": [],
      "stateMutability": "nonpayable",
      "type": "function"
    },
    {
      "inputs": [
        {
          "internalType": "address",
          "name": "from",
          "type": "address"
        },
        {
          "internalType": "address",
          "name": "to",
          "type": "address"
        },
        {
          "internalType": "uint256",
          "name": "tokenId",
          "type": "uint256"
        },
        {
          "internalType": "bytes",
          "name": "_data",
          "type": "bytes"
        }
      ],
      "name": "safeTransferFrom",
      "outputs": [],
      "stateMutability": "nonpayable",
      "type": "function"
    },
    {
      "inputs": [
        {
          "internalType": "address",
          "name": "operator",
          "type": "address"
        },
        {
          "internalType": "bool",
          "name": "approved",
          "type": "bool"
        }
      ],
      "name": "setApprovalForAll",
      "outputs": [],
      "stateMutability": "nonpayable",
      "type": "function"
    },
    {
      "inputs": [
        {
          "internalType": "bytes4",
          "name": "interfaceId",
          "type": "bytes4"
        }
      ],
      "name": "supportsInterface",
      "outputs": [
        {
          "internalType": "bool",
          "name": "",
          "type": "bool"
        }
      ],
      "stateMutability": "view",
      "type": "function"
    },
    {
      "inputs": [],
      "name": "symbol",
      "outputs": [
        {
          "internalType": "string",
          "name": "",
          "type": "string"
        }
      ],
      "stateMutability": "view",
      "type": "function"
    },
    {
      "inputs": [
        {
          "internalType": "uint256",
          "name": "_tokenId",
          "type": "uint256"
        }
      ],
      "name": "tokenURI",
      "outputs": [
        {
          "internalType": "string",
          "name": "",
          "type": "string"
        }
      ],
      "stateMutability": "view",
      "type": "function"
    },
    {
      "inputs": [
        {
          "internalType": "address",
          "name": "from",
          "type": "address"
        },
        {
          "internalType": "address",
          "name": "to",
          "type": "address"
        },
        {
          "internalType": "uint256",
          "name": "tokenId",
          "type": "uint256"
        }
      ],
      "name": "transferFrom",
      "outputs": [],
      "stateMutability": "nonpayable",
      "type": "function"
    },
    {
      "inputs": [
        {
          "internalType": "string",
          "name": "newNotes",
          "type": "string"
        }
      ],
      "name": "updateNotes",
      "outputs": [],
      "stateMutability": "nonpayable",
      "type": "function"
    }
  ],
  "bytecode": "0x60806040523480156200001157600080fd5b5060405162004f6638038062004f66833981810160405281019062000037919062000913565b6040518060400160405280600881526020017f48617368697261730000000000000000000000000000000000000000000000008152506040518060400160405280600781526020017f48617368697261000000000000000000000000000000000000000000000000008152508160009080519060200190620000bb929190620006a6565b508060019080519060200190620000d4929190620006a6565b50505060005b8551811015620005985760076040518060c0016040528083815260200188848151811062000131577f4e487b7100000000000000000000000000000000000000000000000000000000600052603260045260246000fd5b6020026020010151815260200187848151811062000178577f4e487b7100000000000000000000000000000000000000000000000000000000600052603260045260246000fd5b60200260200101518152602001868481518110620001bf577f4e487b7100000000000000000000000000000000000000000000000000000000600052603260045260246000fd5b6020026020010151815260200185848151811062000206577f4e487b7100000000000000000000000000000000000000000000000000000000600052603260045260246000fd5b602002602001015181526020018484815181106200024d577f4e487b7100000000000000000000000000000000000000000000000000000000600052603260045260246000fd5b60200260200101518152509080600181540180825580915050600190039060005260206000209060060201600090919091909150600082015181600001556020820151816001019080519060200190620002a9929190620006a6565b506040820151816002019080519060200190620002c8929190620006a6565b50606082015181600301556080820151816004015560a0820151816005019080519060200190620002fb929190620006a6565b5050506000600782815481106200033b577f4e487b7100000000000000000000000000000000000000000000000000000000600052603260045260246000fd5b90600052602060002090600602016040518060c001604052908160008201548152602001600182018054620003709062000c44565b80601f01602080910402602001604051908101604052809291908181526020018280546200039e9062000c44565b8015620003ef5780601f10620003c357610100808354040283529160200191620003ef565b820191906000526020600020905b815481529060010190602001808311620003d157829003601f168201915b505050505081526020016002820180546200040a9062000c44565b80601f0160208091040260200160405190810160405280929190818152602001828054620004389062000c44565b8015620004895780601f106200045d5761010080835404028352916020019162000489565b820191906000526020600020905b8154815290600101906020018083116200046b57829003601f168201915b505050505081526020016003820154815260200160048201548152602001600582018054620004b89062000c44565b80601f0160208091040260200160405190810160405280929190818152602001828054620004e69062000c44565b8015620005375780601f106200050b5761010080835404028352916020019162000537565b820191906000526020600020905b8154815290600101906020018083116200051957829003601f168201915b50505050508152505090506200058060405180606001604052806029815260200162004f3d60299139826020015183606001518460400151620005bb60201b620018c61760201c565b5060018162000590919062000ba7565b9050620000da565b50620005b060066200066760201b620019681760201c565b505050505062000d32565b6200066184848484604051602401620005d8949392919062000a64565b6040516020818303038152906040527f8d142cdd000000000000000000000000000000000000000000000000000000007bffffffffffffffffffffffffffffffffffffffffffffffffffffffff19166020820180517bffffffffffffffffffffffffffffffffffffffffffffffffffffffff83818316178352505050506200067d60201b60201c565b50505050565b6001816000016000828254019250508190555050565b60008151905060006a636f6e736f6c652e6c6f679050602083016000808483855afa5050505050565b828054620006b49062000c44565b90600052602060002090601f016020900481019282620006d8576000855562000724565b82601f10620006f357805160ff191683800117855562000724565b8280016001018555821562000724579182015b828111156200072357825182559160200191906001019062000706565b5b50905062000733919062000737565b5090565b5b808211156200075257600081600090555060010162000738565b5090565b60006200076d620007678462000afa565b62000ac6565b9050808382526020820190508260005b85811015620007b15781518501620007968882620008cf565b8452602084019350602083019250506001810190506200077d565b5050509392505050565b6000620007d2620007cc8462000b29565b62000ac6565b90508083825260208201905082856020860282011115620007f257600080fd5b60005b858110156200082657816200080b8882620008fc565b845260208401935060208301925050600181019050620007f5565b5050509392505050565b600062000847620008418462000b58565b62000ac6565b9050828152602081018484840111156200086057600080fd5b6200086d84828562000c0e565b509392505050565b600082601f8301126200088757600080fd5b81516200089984826020860162000756565b91505092915050565b600082601f830112620008b457600080fd5b8151620008c6848260208601620007bb565b91505092915050565b600082601f830112620008e157600080fd5b8151620008f384826020860162000830565b91505092915050565b6000815190506200090d8162000d18565b92915050565b600080600080600060a086880312156200092c57600080fd5b600086015167ffffffffffffffff8111156200094757600080fd5b620009558882890162000875565b955050602086015167ffffffffffffffff8111156200097357600080fd5b620009818882890162000875565b945050604086015167ffffffffffffffff8111156200099f57600080fd5b620009ad88828901620008a2565b935050606086015167ffffffffffffffff811115620009cb57600080fd5b620009d988828901620008a2565b925050608086015167ffffffffffffffff811115620009f757600080fd5b62000a058882890162000875565b9150509295509295909350565b600062000a1f8262000b8b565b62000a2b818562000b96565b935062000a3d81856020860162000c0e565b62000a488162000d07565b840191505092915050565b62000a5e8162000c04565b82525050565b6000608082019050818103600083015262000a80818762000a12565b9050818103602083015262000a96818662000a12565b905062000aa7604083018562000a53565b818103606083015262000abb818462000a12565b905095945050505050565b6000604051905081810181811067ffffffffffffffff8211171562000af05762000aef62000cd8565b5b8060405250919050565b600067ffffffffffffffff82111562000b185762000b1762000cd8565b5b602082029050602081019050919050565b600067ffffffffffffffff82111562000b475762000b4662000cd8565b5b602082029050602081019050919050565b600067ffffffffffffffff82111562000b765762000b7562000cd8565b5b601f19601f8301169050602081019050919050565b600081519050919050565b600082825260208201905092915050565b600062000bb48262000c04565b915062000bc18362000c04565b9250827fffffffffffffffffffffffffffffffffffffffffffffffffffffffffffffffff0382111562000bf95762000bf862000c7a565b5b828201905092915050565b6000819050919050565b60005b8381101562000c2e57808201518184015260208101905062000c11565b8381111562000c3e576000848401525b50505050565b6000600282049050600182168062000c5d57607f821691505b6020821081141562000c745762000c7362000ca9565b5b50919050565b7f4e487b7100000000000000000000000000000000000000000000000000000000600052601160045260246000fd5b7f4e487b7100000000000000000000000000000000000000000000000000000000600052602260045260246000fd5b7f4e487b7100000000000000000000000000000000000000000000000000000000600052604160045260246000fd5b6000601f19601f8301169050919050565b62000d238162000c04565b811462000d2f57600080fd5b50565b6141fb8062000d426000396000f3fe608060405234801561001057600080fd5b50600436106101215760003560e01c806395d89b41116100ad578063c87b56dd11610071578063c87b56dd14610331578063c8cf27f414610361578063d1d0d5f81461037f578063e985e9c51461039b578063f8b81ef7146103cb57610121565b806395d89b411461028857806398da4c95146102a6578063a22cb465146102db578063b88d4fde146102f7578063b953084e1461031357610121565b806323b872dd116100f457806323b872dd146101c057806342842e0e146101dc5780636352211e146101f857806370a08231146102285780637df124a11461025857610121565b806301ffc9a71461012657806306fdde0314610156578063081812fc14610174578063095ea7b3146101a4575b600080fd5b610140600480360381019061013b9190612c08565b6103e7565b60405161014d919061395c565b60405180910390f35b61015e6104c9565b60405161016b9190613977565b60405180910390f35b61018e60048036038101906101899190612c9b565b61055b565b60405161019b919061389c565b60405180910390f35b6101be60048036038101906101b99190612bcc565b6105e0565b005b6101da60048036038101906101d59190612ac6565b6106f8565b005b6101f660048036038101906101f19190612ac6565b610758565b005b610212600480360381019061020d9190612c9b565b610778565b60405161021f919061389c565b60405180910390f35b610242600480360381019061023d9190612a61565b61082a565b60405161024f9190613bf3565b60405180910390f35b610272600480360381019061026d9190612a61565b6108e2565b60405161027f9190613bf3565b60405180910390f35b6102906108fa565b60405161029d9190613977565b60405180910390f35b6102c060048036038101906102bb9190612c9b565b61098c565b6040516102d296959493929190613c0e565b60405180910390f35b6102f560048036038101906102f09190612b90565b610b60565b005b610311600480360381019061030c9190612b15565b610b76565b005b61031b610bd8565b604051610328919061393a565b60405180910390f35b61034b60048036038101906103469190612c9b565b610e0b565b6040516103589190613977565b60405180910390f35b6103696110a6565b6040516103769190613bd1565b60405180910390f35b61039960048036038101906103949190612c5a565b611306565b005b6103b560048036038101906103b09190612a8a565b6113a3565b6040516103c2919061395c565b60405180910390f35b6103e560048036038101906103e09190612c9b565b611437565b005b60007f80ac58cd000000000000000000000000000000000000000000000000000000007bffffffffffffffffffffffffffffffffffffffffffffffffffffffff1916827bffffffffffffffffffffffffffffffffffffffffffffffffffffffff191614806104b257507f5b5e139f000000000000000000000000000000000000000000000000000000007bffffffffffffffffffffffffffffffffffffffffffffffffffffffff1916827bffffffffffffffffffffffffffffffffffffffffffffffffffffffff1916145b806104c257506104c18261197e565b5b9050919050565b6060600080546104d890613f82565b80601f016020809104026020016040519081016040528092919081815260200182805461050490613f82565b80156105515780601f1061052657610100808354040283529160200191610551565b820191906000526020600020905b81548152906001019060200180831161053457829003601f168201915b5050505050905090565b6000610566826119e8565b6105a5576040517f08c379a000000000000000000000000000000000000000000000000000000000815260040161059c90613b51565b60405180910390fd5b6004600083815260200190815260200160002060009054906101000a900473ffffffffffffffffffffffffffffffffffffffff169050919050565b60006105eb82610778565b90508073ffffffffffffffffffffffffffffffffffffffff168373ffffffffffffffffffffffffffffffffffffffff16141561065c576040517f08c379a000000000000000000000000000000000000000000000000000000000815260040161065390613b91565b60405180910390fd5b8073ffffffffffffffffffffffffffffffffffffffff1661067b611a54565b73ffffffffffffffffffffffffffffffffffffffff1614806106aa57506106a9816106a4611a54565b6113a3565b5b6106e9576040517f08c379a00000000000000000000000000000000000000000000000000000000081526004016106e090613ad1565b60405180910390fd5b6106f38383611a5c565b505050565b610709610703611a54565b82611b15565b610748576040517f08c379a000000000000000000000000000000000000000000000000000000000815260040161073f90613bb1565b60405180910390fd5b610753838383611bf3565b505050565b61077383838360405180602001604052806000815250610b76565b505050565b6000806002600084815260200190815260200160002060009054906101000a900473ffffffffffffffffffffffffffffffffffffffff169050600073ffffffffffffffffffffffffffffffffffffffff168173ffffffffffffffffffffffffffffffffffffffff161415610821576040517f08c379a000000000000000000000000000000000000000000000000000000000815260040161081890613b11565b60405180910390fd5b80915050919050565b60008073ffffffffffffffffffffffffffffffffffffffff168273ffffffffffffffffffffffffffffffffffffffff16141561089b576040517f08c379a000000000000000000000000000000000000000000000000000000000815260040161089290613af1565b60405180910390fd5b600360008373ffffffffffffffffffffffffffffffffffffffff1673ffffffffffffffffffffffffffffffffffffffff168152602001908152602001600020549050919050565b60096020528060005260406000206000915090505481565b60606001805461090990613f82565b80601f016020809104026020016040519081016040528092919081815260200182805461093590613f82565b80156109825780601f1061095757610100808354040283529160200191610982565b820191906000526020600020905b81548152906001019060200180831161096557829003601f168201915b5050505050905090565b60086020528060005260406000206000915090508060000154908060010180546109b590613f82565b80601f01602080910402602001604051908101604052809291908181526020018280546109e190613f82565b8015610a2e5780601f10610a0357610100808354040283529160200191610a2e565b820191906000526020600020905b815481529060010190602001808311610a1157829003601f168201915b505050505090806002018054610a4390613f82565b80601f0160208091040260200160405190810160405280929190818152602001828054610a6f90613f82565b8015610abc5780601f10610a9157610100808354040283529160200191610abc565b820191906000526020600020905b815481529060010190602001808311610a9f57829003601f168201915b505050505090806003015490806004015490806005018054610add90613f82565b80601f0160208091040260200160405190810160405280929190818152602001828054610b0990613f82565b8015610b565780601f10610b2b57610100808354040283529160200191610b56565b820191906000526020600020905b815481529060010190602001808311610b3957829003601f168201915b5050505050905086565b610b72610b6b611a54565b8383611e4f565b5050565b610b87610b81611a54565b83611b15565b610bc6576040517f08c379a0000000000000000000000000000000000000000000000000000000008152600401610bbd90613bb1565b60405180910390fd5b610bd284848484611fbc565b50505050565b60606007805480602002602001604051908101604052809291908181526020016000905b82821015610e0257838290600052602060002090600602016040518060c001604052908160008201548152602001600182018054610c3990613f82565b80601f0160208091040260200160405190810160405280929190818152602001828054610c6590613f82565b8015610cb25780601f10610c8757610100808354040283529160200191610cb2565b820191906000526020600020905b815481529060010190602001808311610c9557829003601f168201915b50505050508152602001600282018054610ccb90613f82565b80601f0160208091040260200160405190810160405280929190818152602001828054610cf790613f82565b8015610d445780601f10610d1957610100808354040283529160200191610d44565b820191906000526020600020905b815481529060010190602001808311610d2757829003601f168201915b505050505081526020016003820154815260200160048201548152602001600582018054610d7190613f82565b80601f0160208091040260200160405190810160405280929190818152602001828054610d9d90613f82565b8015610dea5780601f10610dbf57610100808354040283529160200191610dea565b820191906000526020600020905b815481529060010190602001808311610dcd57829003601f168201915b50505050508152505081526020019060010190610bfc565b50505050905090565b60606000600860008481526020019081526020016000206040518060c001604052908160008201548152602001600182018054610e4790613f82565b80601f0160208091040260200160405190810160405280929190818152602001828054610e7390613f82565b8015610ec05780601f10610e9557610100808354040283529160200191610ec0565b820191906000526020600020905b815481529060010190602001808311610ea357829003601f168201915b50505050508152602001600282018054610ed990613f82565b80601f0160208091040260200160405190810160405280929190818152602001828054610f0590613f82565b8015610f525780601f10610f2757610100808354040283529160200191610f52565b820191906000526020600020905b815481529060010190602001808311610f3557829003601f168201915b505050505081526020016003820154815260200160048201548152602001600582018054610f7f90613f82565b80601f0160208091040260200160405190810160405280929190818152602001828054610fab90613f82565b8015610ff85780601f10610fcd57610100808354040283529160200191610ff8565b820191906000526020600020905b815481529060010190602001808311610fdb57829003601f168201915b505050505081525050905060006110128260600151612018565b905060006110238360800151612018565b905060008360a0015190506000611072856020015161104189612018565b876040015187878760405160200161105e969594939291906137d5565b6040516020818303038152906040526121c5565b9050600081604051602001611087919061387a565b6040516020818303038152906040529050809650505050505050919050565b6110ae61284f565b6000600960003373ffffffffffffffffffffffffffffffffffffffff1673ffffffffffffffffffffffffffffffffffffffff16815260200190815260200160002054905060008111156112f557600860008281526020019081526020016000206040518060c00160405290816000820154815260200160018201805461113390613f82565b80601f016020809104026020016040519081016040528092919081815260200182805461115f90613f82565b80156111ac5780601f10611181576101008083540402835291602001916111ac565b820191906000526020600020905b81548152906001019060200180831161118f57829003601f168201915b505050505081526020016002820180546111c590613f82565b80601f01602080910402602001604051908101604052809291908181526020018280546111f190613f82565b801561123e5780601f106112135761010080835404028352916020019161123e565b820191906000526020600020905b81548152906001019060200180831161122157829003601f168201915b50505050508152602001600382015481526020016004820154815260200160058201805461126b90613f82565b80601f016020809104026020016040519081016040528092919081815260200182805461129790613f82565b80156112e45780601f106112b9576101008083540402835291602001916112e4565b820191906000526020600020905b8154815290600101906020018083116112c757829003601f168201915b505050505081525050915050611303565b6112fd61284f565b80925050505b90565b6000600960003373ffffffffffffffffffffffffffffffffffffffff1673ffffffffffffffffffffffffffffffffffffffff168152602001908152602001600020549050600060086000838152602001908152602001600020905080600501836040516020016113779291906137a6565b60405160208183030381529060405281600501908051906020019061139d929190612885565b50505050565b6000600560008473ffffffffffffffffffffffffffffffffffffffff1673ffffffffffffffffffffffffffffffffffffffff16815260200190815260200160002060008373ffffffffffffffffffffffffffffffffffffffff1673ffffffffffffffffffffffffffffffffffffffff16815260200190815260200160002060009054906101000a900460ff16905092915050565b60006114436006612383565b905061144f3382612391565b6040518060c001604052808381526020016007848154811061149a577f4e487b7100000000000000000000000000000000000000000000000000000000600052603260045260246000fd5b906000526020600020906006020160010180546114b690613f82565b80601f01602080910402602001604051908101604052809291908181526020018280546114e290613f82565b801561152f5780601f106115045761010080835404028352916020019161152f565b820191906000526020600020905b81548152906001019060200180831161151257829003601f168201915b5050505050815260200160078481548110611573577f4e487b7100000000000000000000000000000000000000000000000000000000600052603260045260246000fd5b9060005260206000209060060201600201805461158f90613f82565b80601f01602080910402602001604051908101604052809291908181526020018280546115bb90613f82565b80156116085780601f106115dd57610100808354040283529160200191611608565b820191906000526020600020905b8154815290600101906020018083116115eb57829003601f168201915b505050505081526020016007848154811061164c577f4e487b7100000000000000000000000000000000000000000000000000000000600052603260045260246000fd5b90600052602060002090600602016003015481526020016007848154811061169d577f4e487b7100000000000000000000000000000000000000000000000000000000600052603260045260246000fd5b9060005260206000209060060201600401548152602001600784815481106116ee577f4e487b7100000000000000000000000000000000000000000000000000000000600052603260045260246000fd5b9060005260206000209060060201600501805461170a90613f82565b80601f016020809104026020016040519081016040528092919081815260200182805461173690613f82565b80156117835780601f1061175857610100808354040283529160200191611783565b820191906000526020600020905b81548152906001019060200180831161176657829003601f168201915b5050505050815250600860008381526020019081526020016000206000820151816000015560208201518160010190805190602001906117c4929190612885565b5060408201518160020190805190602001906117e1929190612885565b50606082015181600301556080820151816004015560a0820151816005019080519060200190611812929190612885565b509050506118396040518060600160405280602e8152602001614198602e913982846123af565b80600960003373ffffffffffffffffffffffffffffffffffffffff1673ffffffffffffffffffffffffffffffffffffffff168152602001908152602001600020819055506118876006611968565b7f4bc303fd457a97b4691b9af582ce71868a3d258638c8d4f8c60988a0f0bfb8cd3382846040516118ba93929190613903565b60405180910390a15050565b611962848484846040516024016118e09493929190613999565b6040516020818303038152906040527f8d142cdd000000000000000000000000000000000000000000000000000000007bffffffffffffffffffffffffffffffffffffffffffffffffffffffff19166020820180517bffffffffffffffffffffffffffffffffffffffffffffffffffffffff838183161783525050505061244e565b50505050565b6001816000016000828254019250508190555050565b60007f01ffc9a7000000000000000000000000000000000000000000000000000000007bffffffffffffffffffffffffffffffffffffffffffffffffffffffff1916827bffffffffffffffffffffffffffffffffffffffffffffffffffffffff1916149050919050565b60008073ffffffffffffffffffffffffffffffffffffffff166002600084815260200190815260200160002060009054906101000a900473ffffffffffffffffffffffffffffffffffffffff1673ffffffffffffffffffffffffffffffffffffffff1614159050919050565b600033905090565b816004600083815260200190815260200160002060006101000a81548173ffffffffffffffffffffffffffffffffffffffff021916908373ffffffffffffffffffffffffffffffffffffffff160217905550808273ffffffffffffffffffffffffffffffffffffffff16611acf83610778565b73ffffffffffffffffffffffffffffffffffffffff167f8c5be1e5ebec7d5bd14f71427d1e84f3dd0314c0f7b2291e5b200ac8c7c3b92560405160405180910390a45050565b6000611b20826119e8565b611b5f576040517f08c379a0000000000000000000000000000000000000000000000000000000008152600401611b5690613ab1565b60405180910390fd5b6000611b6a83610778565b90508073ffffffffffffffffffffffffffffffffffffffff168473ffffffffffffffffffffffffffffffffffffffff161480611bd957508373ffffffffffffffffffffffffffffffffffffffff16611bc18461055b565b73ffffffffffffffffffffffffffffffffffffffff16145b80611bea5750611be981856113a3565b5b91505092915050565b8273ffffffffffffffffffffffffffffffffffffffff16611c1382610778565b73ffffffffffffffffffffffffffffffffffffffff1614611c69576040517f08c379a0000000000000000000000000000000000000000000000000000000008152600401611c6090613b71565b60405180910390fd5b600073ffffffffffffffffffffffffffffffffffffffff168273ffffffffffffffffffffffffffffffffffffffff161415611cd9576040517f08c379a0000000000000000000000000000000000000000000000000000000008152600401611cd090613a71565b60405180910390fd5b611ce4838383612477565b611cef600082611a5c565b6001600360008573ffffffffffffffffffffffffffffffffffffffff1673ffffffffffffffffffffffffffffffffffffffff1681526020019081526020016000206000828254611d3f9190613e98565b925050819055506001600360008473ffffffffffffffffffffffffffffffffffffffff1673ffffffffffffffffffffffffffffffffffffffff1681526020019081526020016000206000828254611d969190613db7565b92505081905550816002600083815260200190815260200160002060006101000a81548173ffffffffffffffffffffffffffffffffffffffff021916908373ffffffffffffffffffffffffffffffffffffffff160217905550808273ffffffffffffffffffffffffffffffffffffffff168473ffffffffffffffffffffffffffffffffffffffff167fddf252ad1be2c89b69c2b068fc378daa952ba7f163c4a11628f55a4df523b3ef60405160405180910390a4505050565b8173ffffffffffffffffffffffffffffffffffffffff168373ffffffffffffffffffffffffffffffffffffffff161415611ebe576040517f08c379a0000000000000000000000000000000000000000000000000000000008152600401611eb590613a91565b60405180910390fd5b80600560008573ffffffffffffffffffffffffffffffffffffffff1673ffffffffffffffffffffffffffffffffffffffff16815260200190815260200160002060008473ffffffffffffffffffffffffffffffffffffffff1673ffffffffffffffffffffffffffffffffffffffff16815260200190815260200160002060006101000a81548160ff0219169083151502179055508173ffffffffffffffffffffffffffffffffffffffff168373ffffffffffffffffffffffffffffffffffffffff167f17307eab39ab6107e8899845ad3d59bd9653f200f220920489ca2b5937696c3183604051611faf919061395c565b60405180910390a3505050565b611fc7848484611bf3565b611fd38484848461247c565b612012576040517f08c379a000000000000000000000000000000000000000000000000000000000815260040161200990613a31565b60405180910390fd5b50505050565b60606000821415612060576040518060400160405280600181526020017f300000000000000000000000000000000000000000000000000000000000000081525090506121c0565b600082905060005b6000821461209257808061207b90613fb4565b915050600a8261208b9190613e0d565b9150612068565b60008167ffffffffffffffff8111156120d4577f4e487b7100000000000000000000000000000000000000000000000000000000600052604160045260246000fd5b6040519080825280601f01601f1916602001820160405280156121065781602001600182028036833780820191505090505b5090505b600085146121b95760018261211f9190613e98565b9150600a8561212e9190613ffd565b603061213a9190613db7565b60f81b818381518110612176577f4e487b7100000000000000000000000000000000000000000000000000000000600052603260045260246000fd5b60200101907effffffffffffffffffffffffffffffffffffffffffffffffffffffffffffff1916908160001a905350600a856121b29190613e0d565b945061210a565b8093505050505b919050565b606060008251905060008114156121ee576040518060200160405280600081525091505061237e565b600060036002836121ff9190613db7565b6122099190613e0d565b60046122159190613e3e565b905060006020826122269190613db7565b67ffffffffffffffff811115612265577f4e487b7100000000000000000000000000000000000000000000000000000000600052604160045260246000fd5b6040519080825280601f01601f1916602001820160405280156122975781602001600182028036833780820191505090505b5090506000604051806060016040528060408152602001614158604091399050600181016020830160005b8681101561233b5760038101905062ffffff818a015116603f8160121c168401518060081b905060ff603f83600c1c1686015116810190508060081b905060ff603f8360061c1686015116810190508060081b905060ff603f831686015116810190508060e01b905080845260048401935050506122c2565b506003860660018114612355576002811461236557612370565b613d3d60f01b6002830352612370565b603d60f81b60018303525b508484525050819450505050505b919050565b600081600001549050919050565b6123ab828260405180602001604052806000815250612613565b5050565b6124498383836040516024016123c7939291906139f3565b6040516020818303038152906040527f969cdd03000000000000000000000000000000000000000000000000000000007bffffffffffffffffffffffffffffffffffffffffffffffffffffffff19166020820180517bffffffffffffffffffffffffffffffffffffffffffffffffffffffff838183161783525050505061244e565b505050565b60008151905060006a636f6e736f6c652e6c6f679050602083016000808483855afa5050505050565b505050565b600061249d8473ffffffffffffffffffffffffffffffffffffffff1661266e565b15612606578373ffffffffffffffffffffffffffffffffffffffff1663150b7a026124c6611a54565b8786866040518563ffffffff1660e01b81526004016124e894939291906138b7565b602060405180830381600087803b15801561250257600080fd5b505af192505050801561253357506040513d601f19601f820116820180604052508101906125309190612c31565b60015b6125b6573d8060008114612563576040519150601f19603f3d011682016040523d82523d6000602084013e612568565b606091505b506000815114156125ae576040517f08c379a00000000000000000000000000000000000000000000000000000000081526004016125a590613a31565b60405180910390fd5b805181602001fd5b63150b7a0260e01b7bffffffffffffffffffffffffffffffffffffffffffffffffffffffff1916817bffffffffffffffffffffffffffffffffffffffffffffffffffffffff19161491505061260b565b600190505b949350505050565b61261d8383612681565b61262a600084848461247c565b612669576040517f08c379a000000000000000000000000000000000000000000000000000000000815260040161266090613a31565b60405180910390fd5b505050565b600080823b905060008111915050919050565b600073ffffffffffffffffffffffffffffffffffffffff168273ffffffffffffffffffffffffffffffffffffffff1614156126f1576040517f08c379a00000000000000000000000000000000000000000000000000000000081526004016126e890613b31565b60405180910390fd5b6126fa816119e8565b1561273a576040517f08c379a000000000000000000000000000000000000000000000000000000000815260040161273190613a51565b60405180910390fd5b61274660008383612477565b6001600360008473ffffffffffffffffffffffffffffffffffffffff1673ffffffffffffffffffffffffffffffffffffffff16815260200190815260200160002060008282546127969190613db7565b92505081905550816002600083815260200190815260200160002060006101000a81548173ffffffffffffffffffffffffffffffffffffffff021916908373ffffffffffffffffffffffffffffffffffffffff160217905550808273ffffffffffffffffffffffffffffffffffffffff16600073ffffffffffffffffffffffffffffffffffffffff167fddf252ad1be2c89b69c2b068fc378daa952ba7f163c4a11628f55a4df523b3ef60405160405180910390a45050565b6040518060c001604052806000815260200160608152602001606081526020016000815260200160008152602001606081525090565b82805461289190613f82565b90600052602060002090601f0160209004810192826128b357600085556128fa565b82601f106128cc57805160ff19168380011785556128fa565b828001600101855582156128fa579182015b828111156128f95782518255916020019190600101906128de565b5b509050612907919061290b565b5090565b5b8082111561292457600081600090555060010161290c565b5090565b600061293b61293684613cb5565b613c84565b90508281526020810184848401111561295357600080fd5b61295e848285613f40565b509392505050565b600061297961297484613ce5565b613c84565b90508281526020810184848401111561299157600080fd5b61299c848285613f40565b509392505050565b6000813590506129b3816140fb565b92915050565b6000813590506129c881614112565b92915050565b6000813590506129dd81614129565b92915050565b6000815190506129f281614129565b92915050565b600082601f830112612a0957600080fd5b8135612a19848260208601612928565b91505092915050565b600082601f830112612a3357600080fd5b8135612a43848260208601612966565b91505092915050565b600081359050612a5b81614140565b92915050565b600060208284031215612a7357600080fd5b6000612a81848285016129a4565b91505092915050565b60008060408385031215612a9d57600080fd5b6000612aab858286016129a4565b9250506020612abc858286016129a4565b9150509250929050565b600080600060608486031215612adb57600080fd5b6000612ae9868287016129a4565b9350506020612afa868287016129a4565b9250506040612b0b86828701612a4c565b9150509250925092565b60008060008060808587031215612b2b57600080fd5b6000612b39878288016129a4565b9450506020612b4a878288016129a4565b9350506040612b5b87828801612a4c565b925050606085013567ffffffffffffffff811115612b7857600080fd5b612b84878288016129f8565b91505092959194509250565b60008060408385031215612ba357600080fd5b6000612bb1858286016129a4565b9250506020612bc2858286016129b9565b9150509250929050565b60008060408385031215612bdf57600080fd5b6000612bed858286016129a4565b9250506020612bfe85828601612a4c565b9150509250929050565b600060208284031215612c1a57600080fd5b6000612c28848285016129ce565b91505092915050565b600060208284031215612c4357600080fd5b6000612c51848285016129e3565b91505092915050565b600060208284031215612c6c57600080fd5b600082013567ffffffffffffffff811115612c8657600080fd5b612c9284828501612a22565b91505092915050565b600060208284031215612cad57600080fd5b6000612cbb84828501612a4c565b91505092915050565b6000612cd0838361365a565b905092915050565b612ce181613ecc565b82525050565b6000612cf282613d3a565b612cfc8185613d68565b935083602082028501612d0e85613d15565b8060005b85811015612d4a5784840389528151612d2b8582612cc4565b9450612d3683613d5b565b925060208a01995050600181019050612d12565b50829750879550505050505092915050565b612d6581613ede565b82525050565b6000612d7682613d45565b612d808185613d79565b9350612d90818560208601613f4f565b612d99816140ea565b840191505092915050565b6000612daf82613d50565b612db98185613d8a565b9350612dc9818560208601613f4f565b612dd2816140ea565b840191505092915050565b6000612de882613d50565b612df28185613d9b565b9350612e02818560208601613f4f565b612e0b816140ea565b840191505092915050565b6000612e2182613d50565b612e2b8185613dac565b9350612e3b818560208601613f4f565b80840191505092915050565b60008154612e5481613f82565b612e5e8186613dac565b94506001821660008114612e795760018114612e8a57612ebd565b60ff19831686528186019350612ebd565b612e9385613d25565b60005b83811015612eb557815481890152600182019150602081019050612e96565b838801955050505b50505092915050565b6000612ed3600b83613dac565b91507f202d2d204e465420233a200000000000000000000000000000000000000000006000830152600b82019050919050565b6000612f13600183613dac565b91507f0a000000000000000000000000000000000000000000000000000000000000006000830152600182019050919050565b6000612f53603283613d9b565b91507f4552433732313a207472616e7366657220746f206e6f6e20455243373231526560008301527f63656976657220696d706c656d656e74657200000000000000000000000000006020830152604082019050919050565b6000612fb9601c83613d9b565b91507f4552433732313a20746f6b656e20616c7265616479206d696e746564000000006000830152602082019050919050565b6000612ff9601183613dac565b91507f2c2022696e74656c6c6967656e6365223a0000000000000000000000000000006000830152601182019050919050565b6000613039602483613d9b565b91507f4552433732313a207472616e7366657220746f20746865207a65726f2061646460008301527f72657373000000000000000000000000000000000000000000000000000000006020830152604082019050919050565b600061309f601983613d9b565b91507f4552433732313a20617070726f766520746f2063616c6c6572000000000000006000830152602082019050919050565b60006130df602c83613d9b565b91507f4552433732313a206f70657261746f7220717565727920666f72206e6f6e657860008301527f697374656e7420746f6b656e00000000000000000000000000000000000000006020830152604082019050919050565b6000613145603883613d9b565b91507f4552433732313a20617070726f76652063616c6c6572206973206e6f74206f7760008301527f6e6572206e6f7220617070726f76656420666f7220616c6c00000000000000006020830152604082019050919050565b60006131ab600d83613dac565b91507f7d2c207b226e6f746573223a20000000000000000000000000000000000000006000830152600d82019050919050565b60006131eb602a83613d9b565b91507f4552433732313a2062616c616e636520717565727920666f7220746865207a6560008301527f726f2061646472657373000000000000000000000000000000000000000000006020830152604082019050919050565b6000613251602983613d9b565b91507f4552433732313a206f776e657220717565727920666f72206e6f6e657869737460008301527f656e7420746f6b656e00000000000000000000000000000000000000000000006020830152604082019050919050565b60006132b7606283613dac565b91507f222c20226465736372697074696f6e223a20225468697320697320616e204e4660008301527f542074686174206c6574732070656f706c6520706c617920696e20746865206760208301527f616d65204d657461766572736520536c6179657221222c2022696d616765223a60408301527f20220000000000000000000000000000000000000000000000000000000000006060830152606282019050919050565b6000613369600483613dac565b91507f7d205d7d000000000000000000000000000000000000000000000000000000006000830152600482019050919050565b60006133a9602083613d9b565b91507f4552433732313a206d696e7420746f20746865207a65726f20616464726573736000830152602082019050919050565b60006133e9602c83613d9b565b91507f4552433732313a20617070726f76656420717565727920666f72206e6f6e657860008301527f697374656e7420746f6b656e00000000000000000000000000000000000000006020830152604082019050919050565b600061344f602983613d9b565b91507f4552433732313a207472616e73666572206f6620746f6b656e2074686174206960008301527f73206e6f74206f776e00000000000000000000000000000000000000000000006020830152604082019050919050565b60006134b5600a83613dac565b91507f7b226e616d65223a2022000000000000000000000000000000000000000000006000830152600a82019050919050565b60006134f5602183613d9b565b91507f4552433732313a20617070726f76616c20746f2063757272656e74206f776e6560008301527f72000000000000000000000000000000000000000000000000000000000000006020830152604082019050919050565b600061355b601d83613dac565b91507f646174613a6170706c69636174696f6e2f6a736f6e3b6261736536342c0000006000830152601d82019050919050565b600061359b603183613d9b565b91507f4552433732313a207472616e736665722063616c6c6572206973206e6f74206f60008301527f776e6572206e6f7220617070726f7665640000000000000000000000000000006020830152604082019050919050565b6000613601603d83613dac565b91507f222c202261747472696275746573223a205b207b202274726169745f7479706560008301527f223a20224865616c746820506f696e7473222c202276616c7565223a200000006020830152603d82019050919050565b600060c0830160008301516136726000860182613788565b506020830151848203602086015261368a8282612da4565b915050604083015184820360408601526136a48282612da4565b91505060608301516136b96060860182613788565b5060808301516136cc6080860182613788565b5060a083015184820360a08601526136e48282612da4565b9150508091505092915050565b600060c0830160008301516137096000860182613788565b50602083015184820360208601526137218282612da4565b9150506040830151848203604086015261373b8282612da4565b91505060608301516137506060860182613788565b5060808301516137636080860182613788565b5060a083015184820360a086015261377b8282612da4565b9150508091505092915050565b61379181613f36565b82525050565b6137a081613f36565b82525050565b60006137b28285612e47565b91506137bd82612f06565b91506137c98284612e16565b91508190509392505050565b60006137e0826134a8565b91506137ec8289612e16565b91506137f782612ec6565b91506138038288612e16565b915061380e826132aa565b915061381a8287612e16565b9150613825826135f4565b91506138318286612e16565b915061383c82612fec565b91506138488285612e16565b91506138538261319e565b915061385f8284612e16565b915061386a8261335c565b9150819050979650505050505050565b60006138858261354e565b91506138918284612e16565b915081905092915050565b60006020820190506138b16000830184612cd8565b92915050565b60006080820190506138cc6000830187612cd8565b6138d96020830186612cd8565b6138e66040830185613797565b81810360608301526138f88184612d6b565b905095945050505050565b60006060820190506139186000830186612cd8565b6139256020830185613797565b6139326040830184613797565b949350505050565b600060208201905081810360008301526139548184612ce7565b905092915050565b60006020820190506139716000830184612d5c565b92915050565b600060208201905081810360008301526139918184612ddd565b905092915050565b600060808201905081810360008301526139b38187612ddd565b905081810360208301526139c78186612ddd565b90506139d66040830185613797565b81810360608301526139e88184612ddd565b905095945050505050565b60006060820190508181036000830152613a0d8186612ddd565b9050613a1c6020830185613797565b613a296040830184613797565b949350505050565b60006020820190508181036000830152613a4a81612f46565b9050919050565b60006020820190508181036000830152613a6a81612fac565b9050919050565b60006020820190508181036000830152613a8a8161302c565b9050919050565b60006020820190508181036000830152613aaa81613092565b9050919050565b60006020820190508181036000830152613aca816130d2565b9050919050565b60006020820190508181036000830152613aea81613138565b9050919050565b60006020820190508181036000830152613b0a816131de565b9050919050565b60006020820190508181036000830152613b2a81613244565b9050919050565b60006020820190508181036000830152613b4a8161339c565b9050919050565b60006020820190508181036000830152613b6a816133dc565b9050919050565b60006020820190508181036000830152613b8a81613442565b9050919050565b60006020820190508181036000830152613baa816134e8565b9050919050565b60006020820190508181036000830152613bca8161358e565b9050919050565b60006020820190508181036000830152613beb81846136f1565b905092915050565b6000602082019050613c086000830184613797565b92915050565b600060c082019050613c236000830189613797565b8181036020830152613c358188612ddd565b90508181036040830152613c498187612ddd565b9050613c586060830186613797565b613c656080830185613797565b81810360a0830152613c778184612ddd565b9050979650505050505050565b6000604051905081810181811067ffffffffffffffff82111715613cab57613caa6140bb565b5b8060405250919050565b600067ffffffffffffffff821115613cd057613ccf6140bb565b5b601f19601f8301169050602081019050919050565b600067ffffffffffffffff821115613d0057613cff6140bb565b5b601f19601f8301169050602081019050919050565b6000819050602082019050919050565b60008190508160005260206000209050919050565b600081519050919050565b600081519050919050565b600081519050919050565b6000602082019050919050565b600082825260208201905092915050565b600082825260208201905092915050565b600082825260208201905092915050565b600082825260208201905092915050565b600081905092915050565b6000613dc282613f36565b9150613dcd83613f36565b9250827fffffffffffffffffffffffffffffffffffffffffffffffffffffffffffffffff03821115613e0257613e0161402e565b5b828201905092915050565b6000613e1882613f36565b9150613e2383613f36565b925082613e3357613e3261405d565b5b828204905092915050565b6000613e4982613f36565b9150613e5483613f36565b9250817fffffffffffffffffffffffffffffffffffffffffffffffffffffffffffffffff0483118215151615613e8d57613e8c61402e565b5b828202905092915050565b6000613ea382613f36565b9150613eae83613f36565b925082821015613ec157613ec061402e565b5b828203905092915050565b6000613ed782613f16565b9050919050565b60008115159050919050565b60007fffffffff0000000000000000000000000000000000000000000000000000000082169050919050565b600073ffffffffffffffffffffffffffffffffffffffff82169050919050565b6000819050919050565b82818337600083830152505050565b60005b83811015613f6d578082015181840152602081019050613f52565b83811115613f7c576000848401525b50505050565b60006002820490506001821680613f9a57607f821691505b60208210811415613fae57613fad61408c565b5b50919050565b6000613fbf82613f36565b91507fffffffffffffffffffffffffffffffffffffffffffffffffffffffffffffffff821415613ff257613ff161402e565b5b600182019050919050565b600061400882613f36565b915061401383613f36565b9250826140235761402261405d565b5b828206905092915050565b7f4e487b7100000000000000000000000000000000000000000000000000000000600052601160045260246000fd5b7f4e487b7100000000000000000000000000000000000000000000000000000000600052601260045260246000fd5b7f4e487b7100000000000000000000000000000000000000000000000000000000600052602260045260246000fd5b7f4e487b7100000000000000000000000000000000000000000000000000000000600052604160045260246000fd5b6000601f19601f8301169050919050565b61410481613ecc565b811461410f57600080fd5b50565b61411b81613ede565b811461412657600080fd5b50565b61413281613eea565b811461413d57600080fd5b50565b61414981613f36565b811461415457600080fd5b5056fe4142434445464748494a4b4c4d4e4f505152535455565758595a6162636465666768696a6b6c6d6e6f707172737475767778797a303132333435363738392b2f4d696e746564204e465420772f20746f6b656e496420257320616e6420636861726163746572496e646578202573a2646970667358221220777e25880671e0190d517d036be980815a60c7c131175cc1883f1ffbf912bf7364736f6c63430008000033446f6e6520696e697469616c697a696e6720257320772f204368616b72612025732c20696d67202573",
  "linkReferences": {},
  "deployedLinkReferences": {}
}